Archive member included to satisfy reference by file (symbol)

c:/program files (x86)/atollic/truestudio for arm 8.0.0/armtools/bin/../lib/gcc/arm-atollic-eabi/6.3.1/../../../../arm-atollic-eabi/lib/armv7e-m/softfp\libc_nano.a(lib_a-init.o)
                              startup\startup_stm32f334x8.o (__libc_init_array)
c:/program files (x86)/atollic/truestudio for arm 8.0.0/armtools/bin/../lib/gcc/arm-atollic-eabi/6.3.1/../../../../arm-atollic-eabi/lib/armv7e-m/softfp\libm.a(lib_a-w_sqrt.o)
                              Src\adc.o (sqrt)
c:/program files (x86)/atollic/truestudio for arm 8.0.0/armtools/bin/../lib/gcc/arm-atollic-eabi/6.3.1/../../../../arm-atollic-eabi/lib/armv7e-m/softfp\libm.a(lib_a-e_sqrt.o)
                              c:/program files (x86)/atollic/truestudio for arm 8.0.0/armtools/bin/../lib/gcc/arm-atollic-eabi/6.3.1/../../../../arm-atollic-eabi/lib/armv7e-m/softfp\libm.a(lib_a-w_sqrt.o) (__ieee754_sqrt)
c:/program files (x86)/atollic/truestudio for arm 8.0.0/armtools/bin/../lib/gcc/arm-atollic-eabi/6.3.1/../../../../arm-atollic-eabi/lib/armv7e-m/softfp\libm.a(lib_a-s_lib_ver.o)
                              c:/program files (x86)/atollic/truestudio for arm 8.0.0/armtools/bin/../lib/gcc/arm-atollic-eabi/6.3.1/../../../../arm-atollic-eabi/lib/armv7e-m/softfp\libm.a(lib_a-w_sqrt.o) (__fdlib_version)
c:/program files (x86)/atollic/truestudio for arm 8.0.0/armtools/bin/../lib/gcc/arm-atollic-eabi/6.3.1/../../../../arm-atollic-eabi/lib/armv7e-m/softfp\libm.a(lib_a-s_matherr.o)
                              c:/program files (x86)/atollic/truestudio for arm 8.0.0/armtools/bin/../lib/gcc/arm-atollic-eabi/6.3.1/../../../../arm-atollic-eabi/lib/armv7e-m/softfp\libm.a(lib_a-w_sqrt.o) (matherr)
c:/program files (x86)/atollic/truestudio for arm 8.0.0/armtools/bin/../lib/gcc/arm-atollic-eabi/6.3.1/../../../../arm-atollic-eabi/lib/armv7e-m/softfp\libc_nano.a(lib_a-errno.o)
                              c:/program files (x86)/atollic/truestudio for arm 8.0.0/armtools/bin/../lib/gcc/arm-atollic-eabi/6.3.1/../../../../arm-atollic-eabi/lib/armv7e-m/softfp\libm.a(lib_a-w_sqrt.o) (__errno)
c:/program files (x86)/atollic/truestudio for arm 8.0.0/armtools/bin/../lib/gcc/arm-atollic-eabi/6.3.1/../../../../arm-atollic-eabi/lib/armv7e-m/softfp\libc_nano.a(lib_a-impure.o)
                              c:/program files (x86)/atollic/truestudio for arm 8.0.0/armtools/bin/../lib/gcc/arm-atollic-eabi/6.3.1/../../../../arm-atollic-eabi/lib/armv7e-m/softfp\libc_nano.a(lib_a-errno.o) (_impure_ptr)
c:/program files (x86)/atollic/truestudio for arm 8.0.0/armtools/bin/../lib/gcc/arm-atollic-eabi/6.3.1/armv7e-m/softfp\libgcc.a(_arm_addsubdf3.o)
                              c:/program files (x86)/atollic/truestudio for arm 8.0.0/armtools/bin/../lib/gcc/arm-atollic-eabi/6.3.1/../../../../arm-atollic-eabi/lib/armv7e-m/softfp\libm.a(lib_a-e_sqrt.o) (__aeabi_dsub)
c:/program files (x86)/atollic/truestudio for arm 8.0.0/armtools/bin/../lib/gcc/arm-atollic-eabi/6.3.1/armv7e-m/softfp\libgcc.a(_arm_muldivdf3.o)
                              Src\adc.o (__aeabi_dmul)
c:/program files (x86)/atollic/truestudio for arm 8.0.0/armtools/bin/../lib/gcc/arm-atollic-eabi/6.3.1/armv7e-m/softfp\libgcc.a(_arm_cmpdf2.o)
                              c:/program files (x86)/atollic/truestudio for arm 8.0.0/armtools/bin/../lib/gcc/arm-atollic-eabi/6.3.1/../../../../arm-atollic-eabi/lib/armv7e-m/softfp\libm.a(lib_a-w_sqrt.o) (__aeabi_dcmplt)
c:/program files (x86)/atollic/truestudio for arm 8.0.0/armtools/bin/../lib/gcc/arm-atollic-eabi/6.3.1/armv7e-m/softfp\libgcc.a(_arm_unorddf2.o)
                              c:/program files (x86)/atollic/truestudio for arm 8.0.0/armtools/bin/../lib/gcc/arm-atollic-eabi/6.3.1/../../../../arm-atollic-eabi/lib/armv7e-m/softfp\libm.a(lib_a-w_sqrt.o) (__aeabi_dcmpun)
c:/program files (x86)/atollic/truestudio for arm 8.0.0/armtools/bin/../lib/gcc/arm-atollic-eabi/6.3.1/armv7e-m/softfp\libgcc.a(_arm_fixdfsi.o)
                              Src\adc.o (__aeabi_d2iz)

Allocating common symbols
Common symbol       size              file

start_time_in_seconds2
                    0x4               Src\uart.o
temp_setpoint       0x2               Src\main.o
end_time_in_seconds2
                    0x4               Src\uart.o
arr_rtc             0xb               Src\uart.o
halStatus           0x4               Src\uart.o
heatingSwitch       0x2               Src\main.o
it_count            0x4               Src\main.o
heatingSetting      0x4               Src\adc.o
current_time        0x4               Src\uart.o
date1               0x4               Src\adc.o
cmdbuffer           0x3c              Src\uart.o
current_time2       0x4               Src\uart.o
digitCount          0x1               Src\SevSeg.o
tempratureString    0x3               Src\SevSeg.o
uwTick              0x4               Drivers\STM32F3xx_HAL_Driver\Src\stm32f3xx_hal.o
ValveSwitch         0x2               Src\main.o
pFlash              0x20              Drivers\STM32F3xx_HAL_Driver\Src\stm32f3xx_hal_flash.o
heatWindowNum       0x2               Src\uart.o
adc1_Val            0x8               Src\adc.o
start_time_in_seconds3
                    0x4               Src\uart.o
currentHeatElementState
                    0x4               Src\adc.o
start_time_in_seconds
                    0x4               Src\uart.o
current_time3       0x4               Src\uart.o
hadc1               0x54              Src\main.o
i                   0x4               Src\uart.o
val                 0x4               Src\uart.o
huart1              0x70              Src\main.o
time1               0x14              Src\adc.o
hdma_adc1           0x44              Src\main.o
hrtc                0x20              Src\main.o
start_time_in_seconds1
                    0x4               Src\uart.o
txbuffer            0x3c              Src\uart.o
end_time_in_seconds3
                    0x4               Src\uart.o
cmdbufpos           0x2               Src\uart.o
current_time1       0x4               Src\uart.o
rxchar              0x1               Src\uart.o
time3               0x14              Src\adc.o
htim2               0x40              Src\main.o
end_time_in_seconds
                    0x4               Src\uart.o
time2               0x14              Src\adc.o
end_time_in_seconds1
                    0x4               Src\uart.o
valveValue          0x4               Src\adc.o

Discarded input sections

 .text          0x00000000        0x0 c:/program files (x86)/atollic/truestudio for arm 8.0.0/armtools/bin/../lib/gcc/arm-atollic-eabi/6.3.1/armv7e-m/softfp/crti.o
 .data          0x00000000        0x0 c:/program files (x86)/atollic/truestudio for arm 8.0.0/armtools/bin/../lib/gcc/arm-atollic-eabi/6.3.1/armv7e-m/softfp/crti.o
 .bss           0x00000000        0x0 c:/program files (x86)/atollic/truestudio for arm 8.0.0/armtools/bin/../lib/gcc/arm-atollic-eabi/6.3.1/armv7e-m/softfp/crti.o
 .data          0x00000000        0x4 c:/program files (x86)/atollic/truestudio for arm 8.0.0/armtools/bin/../lib/gcc/arm-atollic-eabi/6.3.1/armv7e-m/softfp/crtbegin.o
 .text          0x00000000        0x0 Drivers\STM32F3xx_HAL_Driver\Src\stm32f3xx_hal.o
 .data          0x00000000        0x0 Drivers\STM32F3xx_HAL_Driver\Src\stm32f3xx_hal.o
 .bss           0x00000000        0x0 Drivers\STM32F3xx_HAL_Driver\Src\stm32f3xx_hal.o
 .text.HAL_MspInit
                0x00000000        0x4 Drivers\STM32F3xx_HAL_Driver\Src\stm32f3xx_hal.o
 .text.HAL_MspDeInit
                0x00000000        0x4 Drivers\STM32F3xx_HAL_Driver\Src\stm32f3xx_hal.o
 .text.HAL_DeInit
                0x00000000       0x24 Drivers\STM32F3xx_HAL_Driver\Src\stm32f3xx_hal.o
 .text.HAL_SuspendTick
                0x00000000       0x10 Drivers\STM32F3xx_HAL_Driver\Src\stm32f3xx_hal.o
 .text.HAL_ResumeTick
                0x00000000       0x10 Drivers\STM32F3xx_HAL_Driver\Src\stm32f3xx_hal.o
 .text.HAL_GetHalVersion
Memory Configuration

Name             Origin             Length             Attributes
RAM              0x20000000         0x00003000         xrw
CCMRAM           0x10000000         0x00001000         rw
FLASH            0x08000000         0x00010000         xr
*default*        0x00000000         0xffffffff

Linker script and memory map

LOAD c:/program files (x86)/atollic/truestudio for arm 8.0.0/armtools/bin/../lib/gcc/arm-atollic-eabi/6.3.1/armv7e-m/softfp/crti.o
LOAD c:/program files (x86)/atollic/truestudio for arm 8.0.0/armtools/bin/../lib/gcc/arm-atollic-eabi/6.3.1/armv7e-m/softfp/crtbegin.o
LOAD Drivers\STM32F3xx_HAL_Driver\Src\stm32f3xx_hal.o
LOAD Drivers\STM32F3xx_HAL_Driver\Src\stm32f3xx_hal_adc.o
LOAD Drivers\STM32F3xx_HAL_Driver\Src\stm32f3xx_hal_adc_ex.o
LOAD Drivers\STM32F3xx_HAL_Driver\Src\stm32f3xx_hal_cortex.o
LOAD Drivers\STM32F3xx_HAL_Driver\Src\stm32f3xx_hal_dma.o
LOAD Drivers\STM32F3xx_HAL_Driver\Src\stm32f3xx_hal_flash.o
LOAD Drivers\STM32F3xx_HAL_Driver\Src\stm32f3xx_hal_flash_ex.o
LOAD Drivers\STM32F3xx_HAL_Driver\Src\stm32f3xx_hal_gpio.o
LOAD Drivers\STM32F3xx_HAL_Driver\Src\stm32f3xx_hal_i2c.o
LOAD Drivers\STM32F3xx_HAL_Driver\Src\stm32f3xx_hal_i2c_ex.o
LOAD Drivers\STM32F3xx_HAL_Driver\Src\stm32f3xx_hal_pwr.o
LOAD Drivers\STM32F3xx_HAL_Driver\Src\stm32f3xx_hal_pwr_ex.o
LOAD Drivers\STM32F3xx_HAL_Driver\Src\stm32f3xx_hal_rcc.o
LOAD Drivers\STM32F3xx_HAL_Driver\Src\stm32f3xx_hal_rcc_ex.o
LOAD Drivers\STM32F3xx_HAL_Driver\Src\stm32f3xx_hal_rtc.o
LOAD Drivers\STM32F3xx_HAL_Driver\Src\stm32f3xx_hal_rtc_ex.o
LOAD Drivers\STM32F3xx_HAL_Driver\Src\stm32f3xx_hal_tim.o
LOAD Drivers\STM32F3xx_HAL_Driver\Src\stm32f3xx_hal_tim_ex.o
LOAD Drivers\STM32F3xx_HAL_Driver\Src\stm32f3xx_hal_uart.o
LOAD Drivers\STM32F3xx_HAL_Driver\Src\stm32f3xx_hal_uart_ex.o
LOAD Src\SevSeg.o
LOAD Src\adc.o
LOAD Src\main.o
LOAD Src\stm32f3xx_hal_msp.o
LOAD Src\stm32f3xx_it.o
LOAD Src\system_stm32f3xx.o
LOAD Src\uart.o
LOAD startup\startup_stm32f334x8.o
                0x00000080                malloc_getpagesize_P = 0x80
START GROUP
LOAD c:/program files (x86)/atollic/truestudio for arm 8.0.0/armtools/bin/../lib/gcc/arm-atollic-eabi/6.3.1/../../../../arm-atollic-eabi/lib/armv7e-m/softfp\libc_nano.a
LOAD c:/program files (x86)/atollic/truestudio for arm 8.0.0/armtools/bin/../lib/gcc/arm-atollic-eabi/6.3.1/../../../../arm-atollic-eabi/lib/armv7e-m/softfp\libm.a
END GROUP
START GROUP
LOAD c:/program files (x86)/atollic/truestudio for arm 8.0.0/armtools/bin/../lib/gcc/arm-atollic-eabi/6.3.1/armv7e-m/softfp\libgcc.a
LOAD c:/program files (x86)/atollic/truestudio for arm 8.0.0/armtools/bin/../lib/gcc/arm-atollic-eabi/6.3.1/../../../../arm-atollic-eabi/lib/armv7e-m/softfp\libc_nano.a
END GROUP
START GROUP
LOAD c:/program files (x86)/atollic/truestudio for arm 8.0.0/armtools/bin/../lib/gcc/arm-atollic-eabi/6.3.1/armv7e-m/softfp\libgcc.a
LOAD c:/program files (x86)/atollic/truestudio for arm 8.0.0/armtools/bin/../lib/gcc/arm-atollic-eabi/6.3.1/../../../../arm-atollic-eabi/lib/armv7e-m/softfp\libc_nano.a
LOAD c:/program files (x86)/atollic/truestudio for arm 8.0.0/armtools/bin/../lib/gcc/arm-atollic-eabi/6.3.1/../../../../arm-atollic-eabi/lib/armv7e-m/softfp\libnosys.a
END GROUP
START GROUP
LOAD c:/program files (x86)/atollic/truestudio for arm 8.0.0/armtools/bin/../lib/gcc/arm-atollic-eabi/6.3.1/armv7e-m/softfp\libgcc.a
LOAD c:/program files (x86)/atollic/truestudio for arm 8.0.0/armtools/bin/../lib/gcc/arm-atollic-eabi/6.3.1/../../../../arm-atollic-eabi/lib/armv7e-m/softfp\libc_nano.a
LOAD c:/program files (x86)/atollic/truestudio for arm 8.0.0/armtools/bin/../lib/gcc/arm-atollic-eabi/6.3.1/../../../../arm-atollic-eabi/lib/armv7e-m/softfp\libnosys.a
END GROUP
LOAD c:/program files (x86)/atollic/truestudio for arm 8.0.0/armtools/bin/../lib/gcc/arm-atollic-eabi/6.3.1/armv7e-m/softfp/crtend.o
LOAD c:/program files (x86)/atollic/truestudio for arm 8.0.0/armtools/bin/../lib/gcc/arm-atollic-eabi/6.3.1/armv7e-m/softfp/crtn.o
                0x20003000                _estack = 0x20003000
                0x00000200                _Min_Heap_Size = 0x200
                0x00000400                _Min_Stack_Size = 0x400

.isr_vector     0x08000000      0x188
                0x08000000                . = ALIGN (0x4)
 *(.isr_vector)
 .isr_vector    0x08000000      0x188 startup\startup_stm32f334x8.o
                0x08000000                g_pfnVectors
                0x08000188                . = ALIGN (0x4)

.text           0x08000188     0x4a40
                0x08000188                . = ALIGN (0x4)
 *(.text)
 .text          0x08000188       0x40 c:/program files (x86)/atollic/truestudio for arm 8.0.0/armtools/bin/../lib/gcc/arm-atollic-eabi/6.3.1/armv7e-m/softfp/crtbegin.o
 .text          0x080001c8      0x370 c:/program files (x86)/atollic/truestudio for arm 8.0.0/armtools/bin/../lib/gcc/arm-atollic-eabi/6.3.1/armv7e-m/softfp\libgcc.a(_arm_addsubdf3.o)
                0x080001c8                __aeabi_drsub
                0x080001d0                __aeabi_dsub
                0x080001d0                __subdf3
                0x080001d4                __aeabi_dadd
                0x080001d4                __adddf3
                0x0800044c                __floatunsidf
                0x0800044c                __aeabi_ui2d
                0x0800046c                __floatsidf
                0x0800046c                __aeabi_i2d
                0x08000490                __aeabi_f2d
                0x08000490                __extendsfdf2
                0x080004cc                __floatundidf
                0x080004cc                __aeabi_ul2d
                0x080004dc                __floatdidf
                0x080004dc                __aeabi_l2d
 .text          0x08000538      0x424 c:/program files (x86)/atollic/truestudio for arm 8.0.0/armtools/bin/../lib/gcc/arm-atollic-eabi/6.3.1/armv7e-m/softfp\libgcc.a(_arm_muldivdf3.o)
                0x08000538                __aeabi_dmul
                0x08000538                __muldf3
                0x0800078c                __divdf3
                0x0800078c                __aeabi_ddiv
 .text          0x0800095c      0x110 c:/program files (x86)/atollic/truestudio for arm 8.0.0/armtools/bin/../lib/gcc/arm-atollic-eabi/6.3.1/armv7e-m/softfp\libgcc.a(_arm_cmpdf2.o)
                0x0800095c                __gtdf2
                0x0800095c                __gedf2
                0x08000964                __ltdf2
                0x08000964                __ledf2
                0x0800096c                __nedf2
                0x0800096c                __eqdf2
                0x0800096c                __cmpdf2
                0x080009e8                __aeabi_cdrcmple
                0x080009f8                __aeabi_cdcmpeq
                0x080009f8                __aeabi_cdcmple
                0x08000a08                __aeabi_dcmpeq
                0x08000a1c                __aeabi_dcmplt
                0x08000a30                __aeabi_dcmple
                0x08000a44                __aeabi_dcmpge
                0x08000a58                __aeabi_dcmpgt
 .text          0x08000a6c       0x2c c:/program files (x86)/atollic/truestudio for arm 8.0.0/armtools/bin/../lib/gcc/arm-atollic-eabi/6.3.1/armv7e-m/softfp\libgcc.a(_arm_unorddf2.o)
                0x08000a6c                __unorddf2
                0x08000a6c                __aeabi_dcmpun
 .text          0x08000a98       0x50 c:/program files (x86)/atollic/truestudio for arm 8.0.0/armtools/bin/../lib/gcc/arm-atollic-eabi/6.3.1/armv7e-m/softfp\libgcc.a(_arm_fixdfsi.o)
                0x08000a98                __aeabi_d2iz
                0x08000a98                __fixdfsi
 *(.text*)
 .text.HAL_InitTick
                0x08000ae8       0x2c Drivers\STM32F3xx_HAL_Driver\Src\stm32f3xx_hal.o
                0x08000ae8                HAL_InitTick
 .text.HAL_Init
                0x08000b14       0x24 Drivers\STM32F3xx_HAL_Driver\Src\stm32f3xx_hal.o
                0x08000b14                HAL_Init
 .text.HAL_IncTick
                0x08000b38       0x10 Drivers\STM32F3xx_HAL_Driver\Src\stm32f3xx_hal.o
                0x08000b38                HAL_IncTick
 .text.HAL_GetTick
                0x08000b48        0xc Drivers\STM32F3xx_HAL_Driver\Src\stm32f3xx_hal.o
                0x08000b48                HAL_GetTick
 .text.HAL_Delay
                0x08000b54       0x24 Drivers\STM32F3xx_HAL_Driver\Src\stm32f3xx_hal.o
                0x08000b54                HAL_Delay
 .text.HAL_ADC_ConvCpltCallback
                0x08000b78        0x4 Drivers\STM32F3xx_HAL_Driver\Src\stm32f3xx_hal_adc.o
                0x08000b78                HAL_ADC_ConvCpltCallback
 .text.HAL_ADC_ConvHalfCpltCallback
                0x08000b7c        0x4 Drivers\STM32F3xx_HAL_Driver\Src\stm32f3xx_hal_adc.o
                0x08000b7c                HAL_ADC_ConvHalfCpltCallback
 .text.HAL_ADC_ErrorCallback
                0x08000b80        0x4 Drivers\STM32F3xx_HAL_Driver\Src\stm32f3xx_hal_adc.o
                0x08000b80                HAL_ADC_ErrorCallback
 .text.ADC_Disable
                0x08000b84       0x74 Drivers\STM32F3xx_HAL_Driver\Src\stm32f3xx_hal_adc_ex.o
 .text.ADC_Enable
                0x08000bf8       0x74 Drivers\STM32F3xx_HAL_Driver\Src\stm32f3xx_hal_adc_ex.o
 .text.ADC_DMAError
                0x08000c6c       0x18 Drivers\STM32F3xx_HAL_Driver\Src\stm32f3xx_hal_adc_ex.o
 .text.ADC_DMAHalfConvCplt
                0x08000c84        0x8 Drivers\STM32F3xx_HAL_Driver\Src\stm32f3xx_hal_adc_ex.o
 .text.ADC_DMAConvCplt
                0x08000c8c       0x44 Drivers\STM32F3xx_HAL_Driver\Src\stm32f3xx_hal_adc_ex.o
 .text.HAL_ADC_Init
                0x08000cd0      0x214 Drivers\STM32F3xx_HAL_Driver\Src\stm32f3xx_hal_adc_ex.o
                0x08000cd0                HAL_ADC_Init
 .text.HAL_ADC_Start_DMA
                0x08000ee4      0x10c Drivers\STM32F3xx_HAL_Driver\Src\stm32f3xx_hal_adc_ex.o
                0x08000ee4                HAL_ADC_Start_DMA
 .text.HAL_ADC_ConfigChannel
                0x08000ff0      0x32c Drivers\STM32F3xx_HAL_Driver\Src\stm32f3xx_hal_adc_ex.o
                0x08000ff0                HAL_ADC_ConfigChannel
 .text.HAL_ADCEx_MultiModeConfigChannel
                0x0800131c       0xe4 Drivers\STM32F3xx_HAL_Driver\Src\stm32f3xx_hal_adc_ex.o
                0x0800131c                HAL_ADCEx_MultiModeConfigChannel
 .text.HAL_NVIC_SetPriorityGrouping
                0x08001400       0x24 Drivers\STM32F3xx_HAL_Driver\Src\stm32f3xx_hal_cortex.o
                0x08001400                HAL_NVIC_SetPriorityGrouping
 .text.HAL_NVIC_SetPriority
                0x08001424       0x6c Drivers\STM32F3xx_HAL_Driver\Src\stm32f3xx_hal_cortex.o
                0x08001424                HAL_NVIC_SetPriority
 .text.HAL_NVIC_EnableIRQ
                0x08001490       0x18 Drivers\STM32F3xx_HAL_Driver\Src\stm32f3xx_hal_cortex.o
                0x08001490                HAL_NVIC_EnableIRQ
 .text.HAL_SYSTICK_Config
                0x080014a8       0x34 Drivers\STM32F3xx_HAL_Driver\Src\stm32f3xx_hal_cortex.o
                0x080014a8                HAL_SYSTICK_Config
 .text.HAL_SYSTICK_CLKSourceConfig
                0x080014dc       0x18 Drivers\STM32F3xx_HAL_Driver\Src\stm32f3xx_hal_cortex.o
                0x080014dc                HAL_SYSTICK_CLKSourceConfig
 .text.HAL_SYSTICK_Callback
                0x080014f4        0x4 Drivers\STM32F3xx_HAL_Driver\Src\stm32f3xx_hal_cortex.o
                0x080014f4                HAL_SYSTICK_Callback
 .text.HAL_SYSTICK_IRQHandler
                0x080014f8        0x8 Drivers\STM32F3xx_HAL_Driver\Src\stm32f3xx_hal_cortex.o
                0x080014f8                HAL_SYSTICK_IRQHandler
 .text.HAL_DMA_Init
                0x08001500       0x70 Drivers\STM32F3xx_HAL_Driver\Src\stm32f3xx_hal_dma.o
                0x08001500                HAL_DMA_Init
 .text.HAL_DMA_Start_IT
                0x08001570       0x84 Drivers\STM32F3xx_HAL_Driver\Src\stm32f3xx_hal_dma.o
                0x08001570                HAL_DMA_Start_IT
 .text.HAL_DMA_Abort_IT
                0x080015f4       0x48 Drivers\STM32F3xx_HAL_Driver\Src\stm32f3xx_hal_dma.o
                0x080015f4                HAL_DMA_Abort_IT
 .text.HAL_DMA_IRQHandler
                0x0800163c       0x98 Drivers\STM32F3xx_HAL_Driver\Src\stm32f3xx_hal_dma.o
                0x0800163c                HAL_DMA_IRQHandler
 .text.HAL_GPIO_Init
                0x080016d4      0x1d4 Drivers\STM32F3xx_HAL_Driver\Src\stm32f3xx_hal_gpio.o
                0x080016d4                HAL_GPIO_Init
 .text.HAL_GPIO_WritePin
                0x080018a8        0xc Drivers\STM32F3xx_HAL_Driver\Src\stm32f3xx_hal_gpio.o
                0x080018a8                HAL_GPIO_WritePin
 .text.HAL_GPIO_EXTI_Callback
                0x080018b4        0x4 Drivers\STM32F3xx_HAL_Driver\Src\stm32f3xx_hal_gpio.o
                0x080018b4                HAL_GPIO_EXTI_Callback
 .text.HAL_GPIO_EXTI_IRQHandler
                0x080018b8       0x18 Drivers\STM32F3xx_HAL_Driver\Src\stm32f3xx_hal_gpio.o
                0x080018b8                HAL_GPIO_EXTI_IRQHandler
 .text.HAL_PWR_EnableBkUpAccess
                0x080018d0       0x10 Drivers\STM32F3xx_HAL_Driver\Src\stm32f3xx_hal_pwr.o
                0x080018d0                HAL_PWR_EnableBkUpAccess
 .text.HAL_RCC_OscConfig
                0x080018e0      0x59c Drivers\STM32F3xx_HAL_Driver\Src\stm32f3xx_hal_rcc.o
                0x080018e0                HAL_RCC_OscConfig
 .text.HAL_RCC_GetSysClockFreq
                0x08001e7c       0x68 Drivers\STM32F3xx_HAL_Driver\Src\stm32f3xx_hal_rcc.o
                0x08001e7c                HAL_RCC_GetSysClockFreq
 .text.HAL_RCC_ClockConfig
                0x08001ee4      0x190 Drivers\STM32F3xx_HAL_Driver\Src\stm32f3xx_hal_rcc.o
                0x08001ee4                HAL_RCC_ClockConfig
 .text.HAL_RCC_GetHCLKFreq
                0x08002074        0xc Drivers\STM32F3xx_HAL_Driver\Src\stm32f3xx_hal_rcc.o
                0x08002074                HAL_RCC_GetHCLKFreq
 .text.HAL_RCC_GetPCLK1Freq
                0x08002080       0x30 Drivers\STM32F3xx_HAL_Driver\Src\stm32f3xx_hal_rcc.o
                0x08002080                HAL_RCC_GetPCLK1Freq
 .text.HAL_RCC_GetPCLK2Freq
                0x080020b0       0x30 Drivers\STM32F3xx_HAL_Driver\Src\stm32f3xx_hal_rcc.o
                0x080020b0                HAL_RCC_GetPCLK2Freq
 .text.HAL_RCCEx_PeriphCLKConfig
                0x080020e0      0x184 Drivers\STM32F3xx_HAL_Driver\Src\stm32f3xx_hal_rcc_ex.o
                0x080020e0                HAL_RCCEx_PeriphCLKConfig
 .text.HAL_RTC_GetTime
                0x08002264       0x6c Drivers\STM32F3xx_HAL_Driver\Src\stm32f3xx_hal_rtc.o
                0x08002264                HAL_RTC_GetTime
 .text.HAL_RTC_GetDate
                0x080022d0       0x60 Drivers\STM32F3xx_HAL_Driver\Src\stm32f3xx_hal_rtc.o
                0x080022d0                HAL_RTC_GetDate
 .text.HAL_RTC_WaitForSynchro
                0x08002330       0x34 Drivers\STM32F3xx_HAL_Driver\Src\stm32f3xx_hal_rtc.o
                0x08002330                HAL_RTC_WaitForSynchro
 .text.RTC_EnterInitMode
                0x08002364       0x34 Drivers\STM32F3xx_HAL_Driver\Src\stm32f3xx_hal_rtc.o
                0x08002364                RTC_EnterInitMode
 .text.HAL_RTC_Init
                0x08002398       0xb0 Drivers\STM32F3xx_HAL_Driver\Src\stm32f3xx_hal_rtc.o
                0x08002398                HAL_RTC_Init
 .text.HAL_RTC_SetTime
                0x08002448      0x140 Drivers\STM32F3xx_HAL_Driver\Src\stm32f3xx_hal_rtc.o
                0x08002448                HAL_RTC_SetTime
 .text.HAL_RTC_SetDate
                0x08002588      0x11c Drivers\STM32F3xx_HAL_Driver\Src\stm32f3xx_hal_rtc.o
                0x08002588                HAL_RTC_SetDate
 .text.HAL_RTCEx_BKUPWrite
                0x080026a4        0xc Drivers\STM32F3xx_HAL_Driver\Src\stm32f3xx_hal_rtc_ex.o
                0x080026a4                HAL_RTCEx_BKUPWrite
 .text.HAL_RTCEx_BKUPRead
                0x080026b0        0xc Drivers\STM32F3xx_HAL_Driver\Src\stm32f3xx_hal_rtc_ex.o
                0x080026b0                HAL_RTCEx_BKUPRead
 .text.HAL_TIM_Base_Start_IT
                0x080026bc       0x18 Drivers\STM32F3xx_HAL_Driver\Src\stm32f3xx_hal_tim.o
                0x080026bc                HAL_TIM_Base_Start_IT
 .text.HAL_TIM_ConfigClockSource
                0x080026d4      0x190 Drivers\STM32F3xx_HAL_Driver\Src\stm32f3xx_hal_tim.o
                0x080026d4                HAL_TIM_ConfigClockSource
 .text.HAL_TIM_PeriodElapsedCallback
                0x08002864        0x4 Drivers\STM32F3xx_HAL_Driver\Src\stm32f3xx_hal_tim.o
                0x08002864                HAL_TIM_PeriodElapsedCallback
 .text.HAL_TIM_OC_DelayElapsedCallback
                0x08002868        0x4 Drivers\STM32F3xx_HAL_Driver\Src\stm32f3xx_hal_tim.o
                0x08002868                HAL_TIM_OC_DelayElapsedCallback
 .text.HAL_TIM_IC_CaptureCallback
                0x0800286c        0x4 Drivers\STM32F3xx_HAL_Driver\Src\stm32f3xx_hal_tim.o
                0x0800286c                HAL_TIM_IC_CaptureCallback
 .text.HAL_TIM_PWM_PulseFinishedCallback
                0x08002870        0x4 Drivers\STM32F3xx_HAL_Driver\Src\stm32f3xx_hal_tim.o
                0x08002870                HAL_TIM_PWM_PulseFinishedCallback
 .text.HAL_TIM_TriggerCallback
                0x08002874        0x4 Drivers\STM32F3xx_HAL_Driver\Src\stm32f3xx_hal_tim.o
                0x08002874                HAL_TIM_TriggerCallback
 .text.HAL_TIM_IRQHandler
                0x08002878      0x170 Drivers\STM32F3xx_HAL_Driver\Src\stm32f3xx_hal_tim.o
                0x08002878                HAL_TIM_IRQHandler
 .text.TIM_Base_SetConfig
                0x080029e8       0xc0 Drivers\STM32F3xx_HAL_Driver\Src\stm32f3xx_hal_tim.o
                0x080029e8                TIM_Base_SetConfig
 .text.HAL_TIM_Base_Init
                0x08002aa8       0x38 Drivers\STM32F3xx_HAL_Driver\Src\stm32f3xx_hal_tim.o
                0x08002aa8                HAL_TIM_Base_Init
 .text.HAL_TIMEx_MasterConfigSynchronization
                0x08002ae0       0x4c Drivers\STM32F3xx_HAL_Driver\Src\stm32f3xx_hal_tim_ex.o
                0x08002ae0                HAL_TIMEx_MasterConfigSynchronization
 .text.HAL_TIMEx_CommutationCallback
                0x08002b2c        0x4 Drivers\STM32F3xx_HAL_Driver\Src\stm32f3xx_hal_tim_ex.o
                0x08002b2c                HAL_TIMEx_CommutationCallback
 .text.HAL_TIMEx_BreakCallback
                0x08002b30        0x4 Drivers\STM32F3xx_HAL_Driver\Src\stm32f3xx_hal_tim_ex.o
                0x08002b30                HAL_TIMEx_BreakCallback
 .text.HAL_TIMEx_Break2Callback
                0x08002b34        0x4 Drivers\STM32F3xx_HAL_Driver\Src\stm32f3xx_hal_tim_ex.o
                0x08002b34                HAL_TIMEx_Break2Callback
 .text.HAL_UART_Receive_IT
                0x08002b38       0x94 Drivers\STM32F3xx_HAL_Driver\Src\stm32f3xx_hal_uart.o
                0x08002b38                HAL_UART_Receive_IT
 .text.HAL_UART_TxCpltCallback
                0x08002bcc        0x4 Drivers\STM32F3xx_HAL_Driver\Src\stm32f3xx_hal_uart.o
                0x08002bcc                HAL_UART_TxCpltCallback
 .text.HAL_UART_ErrorCallback
                0x08002bd0        0x4 Drivers\STM32F3xx_HAL_Driver\Src\stm32f3xx_hal_uart.o
                0x08002bd0                HAL_UART_ErrorCallback
 .text.UART_DMAAbortOnError
                0x08002bd4       0x18 Drivers\STM32F3xx_HAL_Driver\Src\stm32f3xx_hal_uart.o
 .text.UART_SetConfig
                0x08002bec      0x1ac Drivers\STM32F3xx_HAL_Driver\Src\stm32f3xx_hal_uart.o
                0x08002bec                UART_SetConfig
 .text.UART_AdvFeatureConfig
                0x08002d98       0xb0 Drivers\STM32F3xx_HAL_Driver\Src\stm32f3xx_hal_uart.o
                0x08002d98                UART_AdvFeatureConfig
 .text.UART_WaitOnFlagUntilTimeout
                0x08002e48       0x68 Drivers\STM32F3xx_HAL_Driver\Src\stm32f3xx_hal_uart.o
                0x08002e48                UART_WaitOnFlagUntilTimeout
 .text.HAL_UART_Transmit
                0x08002eb0       0xb8 Drivers\STM32F3xx_HAL_Driver\Src\stm32f3xx_hal_uart.o
                0x08002eb0                HAL_UART_Transmit
 .text.UART_CheckIdleState
                0x08002f68       0x70 Drivers\STM32F3xx_HAL_Driver\Src\stm32f3xx_hal_uart.o
                0x08002f68                UART_CheckIdleState
 .text.HAL_UART_Init
                0x08002fd8       0x6c Drivers\STM32F3xx_HAL_Driver\Src\stm32f3xx_hal_uart.o
                0x08002fd8                HAL_UART_Init
 .text.UART_Transmit_IT
                0x08003044       0x68 Drivers\STM32F3xx_HAL_Driver\Src\stm32f3xx_hal_uart.o
                0x08003044                UART_Transmit_IT
 .text.UART_Receive_IT
                0x080030ac       0x78 Drivers\STM32F3xx_HAL_Driver\Src\stm32f3xx_hal_uart.o
                0x080030ac                UART_Receive_IT
 .text.HAL_UART_IRQHandler
                0x08003124      0x160 Drivers\STM32F3xx_HAL_Driver\Src\stm32f3xx_hal_uart.o
                0x08003124                HAL_UART_IRQHandler
 .text.HAL_UARTEx_WakeupCallback
                0x08003284        0x4 Drivers\STM32F3xx_HAL_Driver\Src\stm32f3xx_hal_uart_ex.o
                0x08003284                HAL_UARTEx_WakeupCallback
 .text.SevSegInit
                0x08003288       0x3c Src\SevSeg.o
                0x08003288                SevSegInit
 .text.SevSegwrite
                0x080032c4       0xfc Src\SevSeg.o
                0x080032c4                SevSegwrite
 .text.SevSegLoop
                0x080033c0       0xf0 Src\SevSeg.o
                0x080033c0                SevSegLoop
 .text.adcInit  0x080034b0        0x4 Src\adc.o
                0x080034b0                adcInit
 *fill*         0x080034b4        0x4 
 .text.fastFindMax
                0x080034b8       0xec Src\adc.o
                0x080034b8                fastFindMax
 .text.findRMS  0x080035a4      0x104 Src\adc.o
                0x080035a4                findRMS
 .text.adcLoop  0x080036a8       0xa4 Src\adc.o
                0x080036a8                adcLoop
 .text.setHeatElement
                0x0800374c       0x28 Src\adc.o
                0x0800374c                setHeatElement
 .text.setValve
                0x08003774       0x28 Src\adc.o
                0x08003774                setValve
 .text.SystemClock_Config
                0x0800379c       0xa4 Src\main.o
                0x0800379c                SystemClock_Config
 .text.startup.main
                0x08003840      0x344 Src\main.o
                0x08003840                main
 .text._Error_Handler
                0x08003b84        0x4 Src\main.o
                0x08003b84                _Error_Handler
 .text.HAL_MspInit
                0x08003b88       0x7c Src\stm32f3xx_hal_msp.o
                0x08003b88                HAL_MspInit
 .text.HAL_ADC_MspInit
                0x08003c04       0xa4 Src\stm32f3xx_hal_msp.o
                0x08003c04                HAL_ADC_MspInit
 .text.HAL_RTC_MspInit
                0x08003ca8       0x2c Src\stm32f3xx_hal_msp.o
                0x08003ca8                HAL_RTC_MspInit
 .text.HAL_TIM_Base_MspInit
                0x08003cd4       0x3c Src\stm32f3xx_hal_msp.o
                0x08003cd4                HAL_TIM_Base_MspInit
 .text.HAL_UART_MspInit
                0x08003d10       0x5c Src\stm32f3xx_hal_msp.o
                0x08003d10                HAL_UART_MspInit
 .text.SysTick_Handler
                0x08003d6c       0x10 Src\stm32f3xx_it.o
                0x08003d6c                SysTick_Handler
 .text.DMA1_Channel1_IRQHandler
                0x08003d7c        0xc Src\stm32f3xx_it.o
                0x08003d7c                DMA1_Channel1_IRQHandler
 .text.TIM2_IRQHandler
                0x08003d88       0x50 Src\stm32f3xx_it.o
                0x08003d88                TIM2_IRQHandler
 .text.USART1_IRQHandler
                0x08003dd8        0xc Src\stm32f3xx_it.o
                0x08003dd8                USART1_IRQHandler
 .text.EXTI15_10_IRQHandler
                0x08003de4       0x60 Src\stm32f3xx_it.o
                0x08003de4                EXTI15_10_IRQHandler
 .text.getCount
                0x08003e44       0x10 Src\stm32f3xx_it.o
                0x08003e44                getCount
 .text.SystemInit
                0x08003e54       0x70 Src\system_stm32f3xx.o
                0x08003e54                SystemInit
 .text.Int2String.part.0
                0x08003ec4       0x84 Src\uart.o
 .text.uartInit
                0x08003f48       0x14 Src\uart.o
                0x08003f48                uartInit
 .text.getAutoHeating
                0x08003f5c        0xc Src\uart.o
                0x08003f5c                getAutoHeating
 .text.handleHeatingElement
                0x08003f68      0x174 Src\uart.o
                0x08003f68                handleHeatingElement
 .text.set_time
                0x080040dc       0x80 Src\uart.o
                0x080040dc                set_time
 .text.get_time
                0x0800415c       0x30 Src\uart.o
                0x0800415c                get_time
 .text.String2Int
                0x0800418c       0x74 Src\uart.o
                0x0800418c                String2Int
 .text.DecodeCommand
                0x08004200      0x6a4 Src\uart.o
                0x08004200                DecodeCommand
 .text.HAL_UART_RxCpltCallback
                0x080048a4       0x60 Src\uart.o
                0x080048a4                HAL_UART_RxCpltCallback
 .text.Reset_Handler
                0x08004904       0x50 startup\startup_stm32f334x8.o
                0x08004904                Reset_Handler
 .text.Default_Handler
                0x08004954        0x2 startup\startup_stm32f334x8.o
                0x08004954                RTC_Alarm_IRQHandler
                0x08004954                HRTIM1_Master_IRQHandler
                0x08004954                DebugMon_Handler
                0x08004954                TIM1_CC_IRQHandler
                0x08004954                HardFault_Handler
                0x08004954                HRTIM1_FLT_IRQHandler
                0x08004954                PVD_IRQHandler
                0x08004954                HRTIM1_TIMD_IRQHandler
                0x08004954                TAMP_STAMP_IRQHandler
                0x08004954                PendSV_Handler
                0x08004954                NMI_Handler
                0x08004954                EXTI3_IRQHandler
                0x08004954                EXTI0_IRQHandler
                0x08004954                FPU_IRQHandler
                0x08004954                CAN_TX_IRQHandler
                0x08004954                TIM1_UP_TIM16_IRQHandler
                0x08004954                UsageFault_Handler
                0x08004954                ADC1_2_IRQHandler
                0x08004954                HRTIM1_TIME_IRQHandler
                0x08004954                SPI1_IRQHandler
                0x08004954                CAN_SCE_IRQHandler
                0x08004954                HRTIM1_TIMC_IRQHandler
                0x08004954                DMA1_Channel4_IRQHandler
                0x08004954                USART3_IRQHandler
                0x08004954                DMA1_Channel7_IRQHandler
                0x08004954                TIM7_DAC2_IRQHandler
                0x08004954                CAN_RX1_IRQHandler
                0x08004954                I2C1_EV_IRQHandler
                0x08004954                DMA1_Channel6_IRQHandler
                0x08004954                TIM3_IRQHandler
                0x08004954                RCC_IRQHandler
                0x08004954                Default_Handler
                0x08004954                COMP2_IRQHandler
                0x08004954                HRTIM1_TIMA_IRQHandler
                0x08004954                TIM6_DAC1_IRQHandler
                0x08004954                EXTI9_5_IRQHandler
                0x08004954                RTC_WKUP_IRQHandler
                0x08004954                MemManage_Handler
                0x08004954                SVC_Handler
                0x08004954                DMA1_Channel5_IRQHandler
                0x08004954                EXTI4_IRQHandler
                0x08004954                HRTIM1_TIMB_IRQHandler
                0x08004954                TIM1_TRG_COM_TIM17_IRQHandler
                0x08004954                DMA1_Channel3_IRQHandler
                0x08004954                WWDG_IRQHandler
                0x08004954                EXTI1_IRQHandler
                0x08004954                COMP4_6_IRQHandler
                0x08004954                USART2_IRQHandler
                0x08004954                DMA1_Channel2_IRQHandler
                0x08004954                FLASH_IRQHandler
                0x08004954                BusFault_Handler
                0x08004954                CAN_RX0_IRQHandler
                0x08004954                I2C1_ER_IRQHandler
                0x08004954                EXTI2_TSC_IRQHandler
                0x08004954                TIM1_BRK_TIM15_IRQHandler
 *fill*         0x08004956        0x2 
 .text.__libc_init_array
                0x08004958       0x48 c:/program files (x86)/atollic/truestudio for arm 8.0.0/armtools/bin/../lib/gcc/arm-atollic-eabi/6.3.1/../../../../arm-atollic-eabi/lib/armv7e-m/softfp\libc_nano.a(lib_a-init.o)
                0x08004958                __libc_init_array
 .text.sqrt     0x080049a0       0xa8 c:/program files (x86)/atollic/truestudio for arm 8.0.0/armtools/bin/../lib/gcc/arm-atollic-eabi/6.3.1/../../../../arm-atollic-eabi/lib/armv7e-m/softfp\libm.a(lib_a-w_sqrt.o)
                0x080049a0                sqrt
 .text.__ieee754_sqrt
                0x08004a48      0x158 c:/program files (x86)/atollic/truestudio for arm 8.0.0/armtools/bin/../lib/gcc/arm-atollic-eabi/6.3.1/../../../../arm-atollic-eabi/lib/armv7e-m/softfp\libm.a(lib_a-e_sqrt.o)
                0x08004a48                __ieee754_sqrt
 .text.matherr  0x08004ba0        0x4 c:/program files (x86)/atollic/truestudio for arm 8.0.0/armtools/bin/../lib/gcc/arm-atollic-eabi/6.3.1/../../../../arm-atollic-eabi/lib/armv7e-m/softfp\libm.a(lib_a-s_matherr.o)
                0x08004ba0                matherr
 .text.__errno  0x08004ba4        0xc c:/program files (x86)/atollic/truestudio for arm 8.0.0/armtools/bin/../lib/gcc/arm-atollic-eabi/6.3.1/../../../../arm-atollic-eabi/lib/armv7e-m/softfp\libc_nano.a(lib_a-errno.o)
                0x08004ba4                __errno
 *(.glue_7)
 .glue_7        0x08004bb0        0x0 linker stubs
 *(.glue_7t)
 .glue_7t       0x08004bb0        0x0 linker stubs
 *(.eh_frame)
 .eh_frame      0x08004bb0        0x0 c:/program files (x86)/atollic/truestudio for arm 8.0.0/armtools/bin/../lib/gcc/arm-atollic-eabi/6.3.1/armv7e-m/softfp/crtbegin.o
 *(.init)
 .init          0x08004bb0        0x4 c:/program files (x86)/atollic/truestudio for arm 8.0.0/armtools/bin/../lib/gcc/arm-atollic-eabi/6.3.1/armv7e-m/softfp/crti.o
                0x08004bb0                _init
 .init          0x08004bb4        0x8 c:/program files (x86)/atollic/truestudio for arm 8.0.0/armtools/bin/../lib/gcc/arm-atollic-eabi/6.3.1/armv7e-m/softfp/crtn.o
 *(.fini)
 .fini          0x08004bbc        0x4 c:/program files (x86)/atollic/truestudio for arm 8.0.0/armtools/bin/../lib/gcc/arm-atollic-eabi/6.3.1/armv7e-m/softfp/crti.o
                0x08004bbc                _fini
 .fini          0x08004bc0        0x8 c:/program files (x86)/atollic/truestudio for arm 8.0.0/armtools/bin/../lib/gcc/arm-atollic-eabi/6.3.1/armv7e-m/softfp/crtn.o
                0x08004bc8                . = ALIGN (0x4)
                0x08004bc8                _etext = .

.vfp11_veneer   0x08004bc8        0x0
 .vfp11_veneer  0x08004bc8        0x0 linker stubs

.v4_bx          0x08004bc8        0x0
 .v4_bx         0x08004bc8        0x0 linker stubs

.iplt           0x08004bc8        0x0
 .iplt          0x08004bc8        0x0 c:/program files (x86)/atollic/truestudio for arm 8.0.0/armtools/bin/../lib/gcc/arm-atollic-eabi/6.3.1/armv7e-m/softfp/crtbegin.o

.rodata         0x08004bc8       0x90
                0x08004bc8                . = ALIGN (0x4)
 *(.rodata)
 *(.rodata*)
 .rodata.aPLLMULFactorTable
                0x08004bc8       0x10 Drivers\STM32F3xx_HAL_Driver\Src\stm32f3xx_hal_rcc.o
                0x08004bc8                aPLLMULFactorTable
 .rodata.aPredivFactorTable
                0x08004bd8       0x10 Drivers\STM32F3xx_HAL_Driver\Src\stm32f3xx_hal_rcc.o
                0x08004bd8                aPredivFactorTable
 .rodata.CSWTCH.45
                0x08004be8        0x4 Drivers\STM32F3xx_HAL_Driver\Src\stm32f3xx_hal_uart.o
 .rodata.HAL_ADC_MspInit.str1.4
                0x08004bec       0x1b Src\stm32f3xx_hal_msp.o
 *fill*         0x08004c07        0x1 
 .rodata.AHBPrescTable
                0x08004c08       0x10 Src\system_stm32f3xx.o
                0x08004c08                AHBPrescTable
 .rodata.APBPrescTable
                0x08004c18        0x8 Src\system_stm32f3xx.o
                0x08004c18                APBPrescTable
 .rodata.DecodeCommand.str1.4
                0x08004c20       0x1d Src\uart.o
 *fill*         0x08004c3d        0x3 
 .rodata.str1.4
                0x08004c40       0x10 Src\uart.o
                                  0xe (size before relaxing)
 .rodata.sqrt.str1.1
                0x08004c50        0x5 c:/program files (x86)/atollic/truestudio for arm 8.0.0/armtools/bin/../lib/gcc/arm-atollic-eabi/6.3.1/../../../../arm-atollic-eabi/lib/armv7e-m/softfp\libm.a(lib_a-w_sqrt.o)
                0x08004c58                . = ALIGN (0x4)
 *fill*         0x08004c55        0x3 

.rel.dyn        0x08004c58        0x0
 .rel.iplt      0x08004c58        0x0 c:/program files (x86)/atollic/truestudio for arm 8.0.0/armtools/bin/../lib/gcc/arm-atollic-eabi/6.3.1/armv7e-m/softfp/crtbegin.o

.ARM.extab
 *(.ARM.extab* .gnu.linkonce.armextab.*)

.ARM            0x08004c58        0x0
                0x08004c58                __exidx_start = .
 *(.ARM.exidx*)
                0x08004c58                __exidx_end = .

.preinit_array  0x08004c58        0x0
                0x08004c58                PROVIDE (__preinit_array_start, .)
 *(.preinit_array*)
                0x08004c58                PROVIDE (__preinit_array_end, .)

.init_array     0x08004c58        0x4
                0x08004c58                PROVIDE (__init_array_start, .)
 *(SORT(.init_array.*))
 *(.init_array*)
 .init_array    0x08004c58        0x4 c:/program files (x86)/atollic/truestudio for arm 8.0.0/armtools/bin/../lib/gcc/arm-atollic-eabi/6.3.1/armv7e-m/softfp/crtbegin.o
                0x08004c5c                PROVIDE (__init_array_end, .)

.fini_array     0x08004c5c        0x4
                [!provide]                PROVIDE (__fini_array_start, .)
 *(SORT(.fini_array.*))
 *(.fini_array*)
 .fini_array    0x08004c5c        0x4 c:/program files (x86)/atollic/truestudio for arm 8.0.0/armtools/bin/../lib/gcc/arm-atollic-eabi/6.3.1/armv7e-m/softfp/crtbegin.o
                [!provide]                PROVIDE (__fini_array_end, .)
                0x08004c60                _sidata = LOADADDR (.data)

.data           0x20000000       0x70 load address 0x08004c60
                0x20000000                . = ALIGN (0x4)
                0x20000000                _sdata = .
 *(.data)
 *(.data*)
 .data.SystemCoreClock
                0x20000000        0x4 Src\system_stm32f3xx.o
                0x20000000                SystemCoreClock
 .data.TXMSG_STUDENTNUM
                0x20000004        0x4 Src\uart.o
                0x20000004                TXMSG_STUDENTNUM
 .data.__fdlib_version
                0x20000008        0x1 c:/program files (x86)/atollic/truestudio for arm 8.0.0/armtools/bin/../lib/gcc/arm-atollic-eabi/6.3.1/../../../../arm-atollic-eabi/lib/armv7e-m/softfp\libm.a(lib_a-s_lib_ver.o)
                0x20000008                __fdlib_version
 *fill*         0x20000009        0x3 
 .data._impure_ptr
                0x2000000c        0x4 c:/program files (x86)/atollic/truestudio for arm 8.0.0/armtools/bin/../lib/gcc/arm-atollic-eabi/6.3.1/../../../../arm-atollic-eabi/lib/armv7e-m/softfp\libc_nano.a(lib_a-impure.o)
                0x2000000c                _impure_ptr
 .data.impure_data
                0x20000010       0x60 c:/program files (x86)/atollic/truestudio for arm 8.0.0/armtools/bin/../lib/gcc/arm-atollic-eabi/6.3.1/../../../../arm-atollic-eabi/lib/armv7e-m/softfp\libc_nano.a(lib_a-impure.o)
                0x20000070                . = ALIGN (0x4)
                0x20000070                _edata = .
                0x08004cd0                _siccmram = LOADADDR (.ccmram)

.igot.plt       0x20000070        0x0 load address 0x08004cd0
 .igot.plt      0x20000070        0x0 c:/program files (x86)/atollic/truestudio for arm 8.0.0/armtools/bin/../lib/gcc/arm-atollic-eabi/6.3.1/armv7e-m/softfp/crtbegin.o

.ccmram         0x10000000        0x0 load address 0x08004cd0
                0x10000000                . = ALIGN (0x4)
                0x10000000                _sccmram = .
 *(.ccmram)
 *(.ccmram*)
                0x10000000                . = ALIGN (0x4)
                0x10000000                _eccmram = .
                0x10000000                . = ALIGN (0x4)

.bss            0x20000070      0x3c8
                0x20000070                _sbss = .
                0x20000070                __bss_start__ = _sbss
 *(.bss)
 .bss           0x20000070       0x1c c:/program files (x86)/atollic/truestudio for arm 8.0.0/armtools/bin/../lib/gcc/arm-atollic-eabi/6.3.1/armv7e-m/softfp/crtbegin.o
 *(.bss*)
 .bss.CH1_midVal
                0x2000008c        0x2 Src\adc.o
                0x2000008c                CH1_midVal
 .bss.CH1_oldVal
                0x2000008e        0x2 Src\adc.o
                0x2000008e                CH1_oldVal
 .bss.CH2_midVal
                0x20000090        0x2 Src\adc.o
                0x20000090                CH2_midVal
 .bss.CH2_oldVal
                0x20000092        0x2 Src\adc.o
                0x20000092                CH2_oldVal
 .bss.ambientTemp
                0x20000094        0x4 Src\adc.o
                0x20000094                ambientTemp
 .bss.currentRMS
                0x20000098        0x4 Src\adc.o
                0x20000098                currentRMS
 .bss.fastCurrentRMS
                0x2000009c        0x4 Src\adc.o
                0x2000009c                fastCurrentRMS
 .bss.fastVoltageRMS
                0x200000a0        0x4 Src\adc.o
                0x200000a0                fastVoltageRMS
 .bss.rmsCurrentSum
                0x200000a4        0x4 Src\adc.o
                0x200000a4                rmsCurrentSum
 .bss.rmsVoltageSum
                0x200000a8        0x4 Src\adc.o
                0x200000a8                rmsVoltageSum
 .bss.sampleAmbientTemp
                0x200000ac        0x4 Src\adc.o
                0x200000ac                sampleAmbientTemp
 .bss.sampleCurrent
                0x200000b0        0x4 Src\adc.o
                0x200000b0                sampleCurrent
 .bss.sampleVoltage
                0x200000b4        0x4 Src\adc.o
                0x200000b4                sampleVoltage
 .bss.sampleWater
                0x200000b8        0x4 Src\adc.o
                0x200000b8                sampleWater
 .bss.sumCount  0x200000bc        0x1 Src\adc.o
                0x200000bc                sumCount
 *fill*         0x200000bd        0x3 
 .bss.voltageRMS
                0x200000c0        0x4 Src\adc.o
                0x200000c0                voltageRMS
 .bss.waterTemp
                0x200000c4        0x4 Src\adc.o
                0x200000c4                waterTemp
 .bss.counter   0x200000c8        0x4 Src\stm32f3xx_it.o
                0x200000c8                counter
 .bss.counterTime
                0x200000cc        0x4 Src\stm32f3xx_it.o
                0x200000cc                counterTime
 .bss.flag      0x200000d0        0x1 Src\stm32f3xx_it.o
                0x200000d0                flag
 *fill*         0x200000d1        0x3 
 .bss.tick      0x200000d4        0x4 Src\stm32f3xx_it.o
                0x200000d4                tick
 .bss.AutoHeating
                0x200000d8        0x1 Src\uart.o
                0x200000d8                AutoHeating
 *fill*         0x200000d9        0x3 
 .bss.heatScheduling
                0x200000dc       0x78 Src\uart.o
                0x200000dc                heatScheduling
 .bss.hrs       0x20000154        0x2 Src\uart.o
                0x20000154                hrs
 .bss.hrs_end   0x20000156        0x2 Src\uart.o
                0x20000156                hrs_end
 .bss.hrs_end1  0x20000158        0x2 Src\uart.o
                0x20000158                hrs_end1
 .bss.hrs_end2  0x2000015a        0x2 Src\uart.o
                0x2000015a                hrs_end2
 .bss.hrs_end3  0x2000015c        0x2 Src\uart.o
                0x2000015c                hrs_end3
 .bss.hrs_start
                0x2000015e        0x2 Src\uart.o
                0x2000015e                hrs_start
 .bss.hrs_start1
                0x20000160        0x2 Src\uart.o
                0x20000160                hrs_start1
 .bss.hrs_start2
                0x20000162        0x2 Src\uart.o
                0x20000162                hrs_start2
 .bss.hrs_start3
                0x20000164        0x2 Src\uart.o
                0x20000164                hrs_start3
 .bss.min       0x20000166        0x2 Src\uart.o
                0x20000166                min
 .bss.min_end   0x20000168        0x2 Src\uart.o
                0x20000168                min_end
 .bss.min_end1  0x2000016a        0x2 Src\uart.o
                0x2000016a                min_end1
 .bss.min_end2  0x2000016c        0x2 Src\uart.o
                0x2000016c                min_end2
 .bss.min_end3  0x2000016e        0x2 Src\uart.o
                0x2000016e                min_end3
 .bss.min_start
                0x20000170        0x2 Src\uart.o
                0x20000170                min_start
 .bss.min_start1
                0x20000172        0x2 Src\uart.o
                0x20000172                min_start1
 .bss.min_start2
                0x20000174        0x2 Src\uart.o
                0x20000174                min_start2
 .bss.min_start3
                0x20000176        0x2 Src\uart.o
                0x20000176                min_start3
 .bss.sec       0x20000178        0x2 Src\uart.o
                0x20000178                sec
 .bss.sec_end   0x2000017a        0x2 Src\uart.o
                0x2000017a                sec_end
 .bss.sec_end1  0x2000017c        0x2 Src\uart.o
                0x2000017c                sec_end1
 .bss.sec_end2  0x2000017e        0x2 Src\uart.o
                0x2000017e                sec_end2
 .bss.sec_end3  0x20000180        0x2 Src\uart.o
                0x20000180                sec_end3
 .bss.sec_start
                0x20000182        0x2 Src\uart.o
                0x20000182                sec_start
 .bss.sec_start1
                0x20000184        0x2 Src\uart.o
                0x20000184                sec_start1
 .bss.sec_start2
                0x20000186        0x2 Src\uart.o
                0x20000186                sec_start2
 .bss.sec_start3
                0x20000188        0x2 Src\uart.o
                0x20000188                sec_start3
 *fill*         0x2000018a        0x2 
 .bss.window_1  0x2000018c        0x4 Src\uart.o
                0x2000018c                window_1
 .bss.window_2  0x20000190        0x4 Src\uart.o
                0x20000190                window_2
 .bss.window_3  0x20000194        0x4 Src\uart.o
                0x20000194                window_3
 *(COMMON)
 COMMON         0x20000198        0x4 Drivers\STM32F3xx_HAL_Driver\Src\stm32f3xx_hal.o
                0x20000198                uwTick
 COMMON         0x2000019c        0x7 Src\SevSeg.o
                0x2000019c                digitCount
                0x200001a0                tempratureString
 *fill*         0x200001a3        0x1 
 COMMON         0x200001a4       0x54 Src\adc.o
                0x200001a4                heatingSetting
                0x200001a8                date1
                0x200001ac                adc1_Val
                0x200001b4                currentHeatElementState
                0x200001b8                time1
                0x200001cc                time3
                0x200001e0                time2
                0x200001f4                valveValue
 COMMON         0x200001f8      0x174 Src\main.o
                0x200001f8                temp_setpoint
                0x200001fa                heatingSwitch
                0x200001fc                it_count
                0x20000200                ValveSwitch
                0x20000204                hadc1
                0x20000258                huart1
                0x200002c8                hdma_adc1
                0x2000030c                hrtc
                0x2000032c                htim2
 COMMON         0x2000036c       0xcc Src\uart.o
                0x2000036c                start_time_in_seconds2
                0x20000370                end_time_in_seconds2
                0x20000374                arr_rtc
                0x20000380                halStatus
                0x20000384                current_time
                0x20000388                cmdbuffer
                0x200003c4                current_time2
                0x200003c8                heatWindowNum
                0x200003cc                start_time_in_seconds3
                0x200003d0                start_time_in_seconds
                0x200003d4                current_time3
                0x200003d8                i
                0x200003dc                val
                0x200003e0                start_time_in_seconds1
                0x200003e4                txbuffer
                0x20000420                end_time_in_seconds3
                0x20000424                cmdbufpos
                0x20000428                current_time1
                0x2000042c                rxchar
                0x20000430                end_time_in_seconds
                0x20000434                end_time_in_seconds1
                0x20000438                . = ALIGN (0x4)
                0x20000438                _ebss = .
                0x20000438                __bss_end__ = _ebss

._user_heap_stack
                0x20000438      0x600
                0x20000438                . = ALIGN (0x4)
                [!provide]                PROVIDE (end, .)
                [!provide]                PROVIDE (_end, .)
                0x20000638                . = (. + _Min_Heap_Size)
 *fill*         0x20000438      0x200 
                0x20000a38                . = (. + _Min_Stack_Size)
 *fill*         0x20000638      0x400 
                0x20000a38                . = ALIGN (0x4)

/DISCARD/
 libc.a(*)
 libm.a(*)
 libgcc.a(*)

.ARM.attributes
                0x00000000       0x2e
 *(.ARM.attributes)
 .ARM.attributes
                0x00000000       0x22 c:/program files (x86)/atollic/truestudio for arm 8.0.0/armtools/bin/../lib/gcc/arm-atollic-eabi/6.3.1/armv7e-m/softfp/crti.o
 .ARM.attributes
                0x00000022       0x32 c:/program files (x86)/atollic/truestudio for arm 8.0.0/armtools/bin/../lib/gcc/arm-atollic-eabi/6.3.1/armv7e-m/softfp/crtbegin.o
 .ARM.attributes
                0x00000054       0x37 Drivers\STM32F3xx_HAL_Driver\Src\stm32f3xx_hal.o
 .ARM.attributes
                0x0000008b       0x37 Drivers\STM32F3xx_HAL_Driver\Src\stm32f3xx_hal_adc.o
 .ARM.attributes
                0x000000c2       0x37 Drivers\STM32F3xx_HAL_Driver\Src\stm32f3xx_hal_adc_ex.o
 .ARM.attributes
                0x000000f9       0x37 Drivers\STM32F3xx_HAL_Driver\Src\stm32f3xx_hal_cortex.o
 .ARM.attributes
                0x00000130       0x37 Drivers\STM32F3xx_HAL_Driver\Src\stm32f3xx_hal_dma.o
 .ARM.attributes
                0x00000167       0x37 Drivers\STM32F3xx_HAL_Driver\Src\stm32f3xx_hal_gpio.o
 .ARM.attributes
                0x0000019e       0x37 Drivers\STM32F3xx_HAL_Driver\Src\stm32f3xx_hal_pwr.o
 .ARM.attributes
                0x000001d5       0x37 Drivers\STM32F3xx_HAL_Driver\Src\stm32f3xx_hal_rcc.o
 .ARM.attributes
                0x0000020c       0x37 Drivers\STM32F3xx_HAL_Driver\Src\stm32f3xx_hal_rcc_ex.o
 .ARM.attributes
                0x00000243       0x37 Drivers\STM32F3xx_HAL_Driver\Src\stm32f3xx_hal_rtc.o
 .ARM.attributes
                0x0000027a       0x37 Drivers\STM32F3xx_HAL_Driver\Src\stm32f3xx_hal_rtc_ex.o
 .ARM.attributes
                0x000002b1       0x37 Drivers\STM32F3xx_HAL_Driver\Src\stm32f3xx_hal_tim.o
 .ARM.attributes
                0x000002e8       0x37 Drivers\STM32F3xx_HAL_Driver\Src\stm32f3xx_hal_tim_ex.o
 .ARM.attributes
                0x0000031f       0x37 Drivers\STM32F3xx_HAL_Driver\Src\stm32f3xx_hal_uart.o
 .ARM.attributes
                0x00000356       0x37 Drivers\STM32F3xx_HAL_Driver\Src\stm32f3xx_hal_uart_ex.o
 .ARM.attributes
                0x0000038d       0x37 Src\SevSeg.o
 .ARM.attributes
                0x000003c4       0x37 Src\adc.o
 .ARM.attributes
                0x000003fb       0x37 Src\main.o
 .ARM.attributes
                0x00000432       0x37 Src\stm32f3xx_hal_msp.o
 .ARM.attributes
                0x00000469       0x37 Src\stm32f3xx_it.o
 .ARM.attributes
                0x000004a0       0x37 Src\system_stm32f3xx.o
 .ARM.attributes
                0x000004d7       0x37 Src\uart.o
 .ARM.attributes
                0x0000050e       0x21 startup\startup_stm32f334x8.o
 .ARM.attributes
                0x0000052f       0x32 c:/program files (x86)/atollic/truestudio for arm 8.0.0/armtools/bin/../lib/gcc/arm-atollic-eabi/6.3.1/../../../../arm-atollic-eabi/lib/armv7e-m/softfp\libc_nano.a(lib_a-init.o)
 .ARM.attributes
                0x00000561       0x32 c:/program files (x86)/atollic/truestudio for arm 8.0.0/armtools/bin/../lib/gcc/arm-atollic-eabi/6.3.1/../../../../arm-atollic-eabi/lib/armv7e-m/softfp\libm.a(lib_a-w_sqrt.o)
 .ARM.attributes
                0x00000593       0x32 c:/program files (x86)/atollic/truestudio for arm 8.0.0/armtools/bin/../lib/gcc/arm-atollic-eabi/6.3.1/../../../../arm-atollic-eabi/lib/armv7e-m/softfp\libm.a(lib_a-e_sqrt.o)
 .ARM.attributes
                0x000005c5       0x32 c:/program files (x86)/atollic/truestudio for arm 8.0.0/armtools/bin/../lib/gcc/arm-atollic-eabi/6.3.1/../../../../arm-atollic-eabi/lib/armv7e-m/softfp\libm.a(lib_a-s_lib_ver.o)
 .ARM.attributes
                0x000005f7       0x32 c:/program files (x86)/atollic/truestudio for arm 8.0.0/armtools/bin/../lib/gcc/arm-atollic-eabi/6.3.1/../../../../arm-atollic-eabi/lib/armv7e-m/softfp\libm.a(lib_a-s_matherr.o)
 .ARM.attributes
                0x00000629       0x32 c:/program files (x86)/atollic/truestudio for arm 8.0.0/armtools/bin/../lib/gcc/arm-atollic-eabi/6.3.1/../../../../arm-atollic-eabi/lib/armv7e-m/softfp\libc_nano.a(lib_a-errno.o)
 .ARM.attributes
                0x0000065b       0x32 c:/program files (x86)/atollic/truestudio for arm 8.0.0/armtools/bin/../lib/gcc/arm-atollic-eabi/6.3.1/../../../../arm-atollic-eabi/lib/armv7e-m/softfp\libc_nano.a(lib_a-impure.o)
 .ARM.attributes
                0x0000068d       0x22 c:/program files (x86)/atollic/truestudio for arm 8.0.0/armtools/bin/../lib/gcc/arm-atollic-eabi/6.3.1/armv7e-m/softfp\libgcc.a(_arm_addsubdf3.o)
 .ARM.attributes
                0x000006af       0x22 c:/program files (x86)/atollic/truestudio for arm 8.0.0/armtools/bin/../lib/gcc/arm-atollic-eabi/6.3.1/armv7e-m/softfp\libgcc.a(_arm_muldivdf3.o)
 .ARM.attributes
                0x000006d1       0x22 c:/program files (x86)/atollic/truestudio for arm 8.0.0/armtools/bin/../lib/gcc/arm-atollic-eabi/6.3.1/armv7e-m/softfp\libgcc.a(_arm_cmpdf2.o)
 .ARM.attributes
                0x000006f3       0x22 c:/program files (x86)/atollic/truestudio for arm 8.0.0/armtools/bin/../lib/gcc/arm-atollic-eabi/6.3.1/armv7e-m/softfp\libgcc.a(_arm_unorddf2.o)
 .ARM.attributes
                0x00000715       0x22 c:/program files (x86)/atollic/truestudio for arm 8.0.0/armtools/bin/../lib/gcc/arm-atollic-eabi/6.3.1/armv7e-m/softfp\libgcc.a(_arm_fixdfsi.o)
 .ARM.attributes
                0x00000737       0x22 c:/program files (x86)/atollic/truestudio for arm 8.0.0/armtools/bin/../lib/gcc/arm-atollic-eabi/6.3.1/armv7e-m/softfp/crtn.o
OUTPUT(FollowTheSteps314.elf elf32-littlearm)

.debug_info     0x00000000    0x226e5
 .debug_info    0x00000000      0xf50 Drivers\STM32F3xx_HAL_Driver\Src\stm32f3xx_hal.o
 .debug_info    0x00000f50     0x12ee Drivers\STM32F3xx_HAL_Driver\Src\stm32f3xx_hal_adc.o
 .debug_info    0x0000223e     0x228d Drivers\STM32F3xx_HAL_Driver\Src\stm32f3xx_hal_adc_ex.o
 .debug_info    0x000044cb     0x1498 Drivers\STM32F3xx_HAL_Driver\Src\stm32f3xx_hal_cortex.o
 .debug_info    0x00005963     0x1042 Drivers\STM32F3xx_HAL_Driver\Src\stm32f3xx_hal_dma.o
 .debug_info    0x000069a5      0xf9a Drivers\STM32F3xx_HAL_Driver\Src\stm32f3xx_hal_gpio.o
 .debug_info    0x0000793f      0xdc8 Drivers\STM32F3xx_HAL_Driver\Src\stm32f3xx_hal_pwr.o
 .debug_info    0x00008707     0x1b42 Drivers\STM32F3xx_HAL_Driver\Src\stm32f3xx_hal_rcc.o
 .debug_info    0x0000a249      0xe8f Drivers\STM32F3xx_HAL_Driver\Src\stm32f3xx_hal_rcc_ex.o
 .debug_info    0x0000b0d8     0x18f2 Drivers\STM32F3xx_HAL_Driver\Src\stm32f3xx_hal_rtc.o
 .debug_info    0x0000c9ca     0x17a9 Drivers\STM32F3xx_HAL_Driver\Src\stm32f3xx_hal_rtc_ex.o
 .debug_info    0x0000e173     0x4051 Drivers\STM32F3xx_HAL_Driver\Src\stm32f3xx_hal_tim.o
 .debug_info    0x000121c4     0x1f18 Drivers\STM32F3xx_HAL_Driver\Src\stm32f3xx_hal_tim_ex.o
 .debug_info    0x000140dc     0x227b Drivers\STM32F3xx_HAL_Driver\Src\stm32f3xx_hal_uart.o
 .debug_info    0x00016357     0x1133 Drivers\STM32F3xx_HAL_Driver\Src\stm32f3xx_hal_uart_ex.o
 .debug_info    0x0001748a      0xae4 Src\SevSeg.o
 .debug_info    0x00017f6e     0x1ba3 Src\adc.o
 .debug_info    0x00019b11     0x2740 Src\main.o
 .debug_info    0x0001c251     0x1ebc Src\stm32f3xx_hal_msp.o
 .debug_info    0x0001e10d     0x1a4d Src\stm32f3xx_it.o
 .debug_info    0x0001fb5a      0xc20 Src\system_stm32f3xx.o
 .debug_info    0x0002077a     0x1ee2 Src\uart.o
 .debug_info    0x0002265c       0x89 startup\startup_stm32f334x8.o

.debug_abbrev   0x00000000     0x4020
 .debug_abbrev  0x00000000      0x2b3 Drivers\STM32F3xx_HAL_Driver\Src\stm32f3xx_hal.o
 .debug_abbrev  0x000002b3      0x24c Drivers\STM32F3xx_HAL_Driver\Src\stm32f3xx_hal_adc.o
 .debug_abbrev  0x000004ff      0x366 Drivers\STM32F3xx_HAL_Driver\Src\stm32f3xx_hal_adc_ex.o
 .debug_abbrev  0x00000865      0x374 Drivers\STM32F3xx_HAL_Driver\Src\stm32f3xx_hal_cortex.o
 .debug_abbrev  0x00000bd9      0x2b4 Drivers\STM32F3xx_HAL_Driver\Src\stm32f3xx_hal_dma.o
 .debug_abbrev  0x00000e8d      0x277 Drivers\STM32F3xx_HAL_Driver\Src\stm32f3xx_hal_gpio.o
 .debug_abbrev  0x00001104      0x202 Drivers\STM32F3xx_HAL_Driver\Src\stm32f3xx_hal_pwr.o
 .debug_abbrev  0x00001306      0x354 Drivers\STM32F3xx_HAL_Driver\Src\stm32f3xx_hal_rcc.o
 .debug_abbrev  0x0000165a      0x316 Drivers\STM32F3xx_HAL_Driver\Src\stm32f3xx_hal_rcc_ex.o
 .debug_abbrev  0x00001970      0x347 Drivers\STM32F3xx_HAL_Driver\Src\stm32f3xx_hal_rtc.o
 .debug_abbrev  0x00001cb7      0x2d5 Drivers\STM32F3xx_HAL_Driver\Src\stm32f3xx_hal_rtc_ex.o
 .debug_abbrev  0x00001f8c      0x3c3 Drivers\STM32F3xx_HAL_Driver\Src\stm32f3xx_hal_tim.o
 .debug_abbrev  0x0000234f      0x357 Drivers\STM32F3xx_HAL_Driver\Src\stm32f3xx_hal_tim_ex.o
 .debug_abbrev  0x000026a6      0x3b2 Drivers\STM32F3xx_HAL_Driver\Src\stm32f3xx_hal_uart.o
 .debug_abbrev  0x00002a58      0x289 Drivers\STM32F3xx_HAL_Driver\Src\stm32f3xx_hal_uart_ex.o
 .debug_abbrev  0x00002ce1      0x1f8 Src\SevSeg.o
 .debug_abbrev  0x00002ed9      0x33b Src\adc.o
 .debug_abbrev  0x00003214      0x360 Src\main.o
 .debug_abbrev  0x00003574      0x2cd Src\stm32f3xx_hal_msp.o
 .debug_abbrev  0x00003841      0x24c Src\stm32f3xx_it.o
 .debug_abbrev  0x00003a8d      0x1ca Src\system_stm32f3xx.o
 .debug_abbrev  0x00003c57      0x3b7 Src\uart.o
 .debug_abbrev  0x0000400e       0x12 startup\startup_stm32f334x8.o

.debug_loc      0x00000000     0xde6e
 .debug_loc     0x00000000       0x69 Drivers\STM32F3xx_HAL_Driver\Src\stm32f3xx_hal.o
 .debug_loc     0x00000069      0x108 Drivers\STM32F3xx_HAL_Driver\Src\stm32f3xx_hal_adc.o
 .debug_loc     0x00000171     0x1c3c Drivers\STM32F3xx_HAL_Driver\Src\stm32f3xx_hal_adc_ex.o
 .debug_loc     0x00001dad      0x619 Drivers\STM32F3xx_HAL_Driver\Src\stm32f3xx_hal_cortex.o
 .debug_loc     0x000023c6      0x65a Drivers\STM32F3xx_HAL_Driver\Src\stm32f3xx_hal_dma.o
 .debug_loc     0x00002a20      0x3ba Drivers\STM32F3xx_HAL_Driver\Src\stm32f3xx_hal_gpio.o
 .debug_loc     0x00002dda       0x8d Drivers\STM32F3xx_HAL_Driver\Src\stm32f3xx_hal_pwr.o
 .debug_loc     0x00002e67      0x908 Drivers\STM32F3xx_HAL_Driver\Src\stm32f3xx_hal_rcc.o
 .debug_loc     0x0000376f      0x4dd Drivers\STM32F3xx_HAL_Driver\Src\stm32f3xx_hal_rcc_ex.o
 .debug_loc     0x00003c4c     0x1095 Drivers\STM32F3xx_HAL_Driver\Src\stm32f3xx_hal_rtc.o
 .debug_loc     0x00004ce1      0xd39 Drivers\STM32F3xx_HAL_Driver\Src\stm32f3xx_hal_rtc_ex.o
 .debug_loc     0x00005a1a     0x491c Drivers\STM32F3xx_HAL_Driver\Src\stm32f3xx_hal_tim.o
 .debug_loc     0x0000a336     0x164c Drivers\STM32F3xx_HAL_Driver\Src\stm32f3xx_hal_tim_ex.o
 .debug_loc     0x0000b982     0x1770 Drivers\STM32F3xx_HAL_Driver\Src\stm32f3xx_hal_uart.o
 .debug_loc     0x0000d0f2      0x360 Drivers\STM32F3xx_HAL_Driver\Src\stm32f3xx_hal_uart_ex.o
 .debug_loc     0x0000d452       0xd8 Src\SevSeg.o
 .debug_loc     0x0000d52a      0x1a5 Src\adc.o
 .debug_loc     0x0000d6cf       0xfa Src\stm32f3xx_hal_msp.o
 .debug_loc     0x0000d7c9      0x109 Src\system_stm32f3xx.o
 .debug_loc     0x0000d8d2      0x59c Src\uart.o

.debug_aranges  0x00000000      0xe38
 .debug_aranges
                0x00000000       0xc0 Drivers\STM32F3xx_HAL_Driver\Src\stm32f3xx_hal.o
 .debug_aranges
                0x000000c0       0x60 Drivers\STM32F3xx_HAL_Driver\Src\stm32f3xx_hal_adc.o
 .debug_aranges
                0x00000120      0x150 Drivers\STM32F3xx_HAL_Driver\Src\stm32f3xx_hal_adc_ex.o
 .debug_aranges
                0x00000270       0x90 Drivers\STM32F3xx_HAL_Driver\Src\stm32f3xx_hal_cortex.o
 .debug_aranges
                0x00000300       0x78 Drivers\STM32F3xx_HAL_Driver\Src\stm32f3xx_hal_dma.o
 .debug_aranges
                0x00000378       0x58 Drivers\STM32F3xx_HAL_Driver\Src\stm32f3xx_hal_gpio.o
 .debug_aranges
                0x000003d0       0x78 Drivers\STM32F3xx_HAL_Driver\Src\stm32f3xx_hal_pwr.o
 .debug_aranges
                0x00000448       0x88 Drivers\STM32F3xx_HAL_Driver\Src\stm32f3xx_hal_rcc.o
 .debug_aranges
                0x000004d0       0x30 Drivers\STM32F3xx_HAL_Driver\Src\stm32f3xx_hal_rcc_ex.o
 .debug_aranges
                0x00000500       0xa8 Drivers\STM32F3xx_HAL_Driver\Src\stm32f3xx_hal_rtc.o
 .debug_aranges
                0x000005a8      0x100 Drivers\STM32F3xx_HAL_Driver\Src\stm32f3xx_hal_rtc_ex.o
 .debug_aranges
                0x000006a8      0x268 Drivers\STM32F3xx_HAL_Driver\Src\stm32f3xx_hal_tim.o
 .debug_aranges
                0x00000910      0x118 Drivers\STM32F3xx_HAL_Driver\Src\stm32f3xx_hal_tim_ex.o
 .debug_aranges
                0x00000a28      0x198 Drivers\STM32F3xx_HAL_Driver\Src\stm32f3xx_hal_uart.o
 .debug_aranges
                0x00000bc0       0x48 Drivers\STM32F3xx_HAL_Driver\Src\stm32f3xx_hal_uart_ex.o
 .debug_aranges
                0x00000c08       0x38 Src\SevSeg.o
 .debug_aranges
                0x00000c40       0x60 Src\adc.o
 .debug_aranges
                0x00000ca0       0x38 Src\main.o
 .debug_aranges
                0x00000cd8       0x60 Src\stm32f3xx_hal_msp.o
 .debug_aranges
                0x00000d38       0x48 Src\stm32f3xx_it.o
 .debug_aranges
                0x00000d80       0x28 Src\system_stm32f3xx.o
 .debug_aranges
                0x00000da8       0x68 Src\uart.o
 .debug_aranges
                0x00000e10       0x28 startup\startup_stm32f334x8.o

.debug_ranges   0x00000000     0x19d8
 .debug_ranges  0x00000000       0xb0 Drivers\STM32F3xx_HAL_Driver\Src\stm32f3xx_hal.o
 .debug_ranges  0x000000b0       0x50 Drivers\STM32F3xx_HAL_Driver\Src\stm32f3xx_hal_adc.o
 .debug_ranges  0x00000100      0x140 Drivers\STM32F3xx_HAL_Driver\Src\stm32f3xx_hal_adc_ex.o
 .debug_ranges  0x00000240      0x148 Drivers\STM32F3xx_HAL_Driver\Src\stm32f3xx_hal_cortex.o
 .debug_ranges  0x00000388      0x128 Drivers\STM32F3xx_HAL_Driver\Src\stm32f3xx_hal_dma.o
 .debug_ranges  0x000004b0       0x60 Drivers\STM32F3xx_HAL_Driver\Src\stm32f3xx_hal_gpio.o
 .debug_ranges  0x00000510       0x68 Drivers\STM32F3xx_HAL_Driver\Src\stm32f3xx_hal_pwr.o
 .debug_ranges  0x00000578      0x270 Drivers\STM32F3xx_HAL_Driver\Src\stm32f3xx_hal_rcc.o
 .debug_ranges  0x000007e8       0xb0 Drivers\STM32F3xx_HAL_Driver\Src\stm32f3xx_hal_rcc_ex.o
 .debug_ranges  0x00000898      0x380 Drivers\STM32F3xx_HAL_Driver\Src\stm32f3xx_hal_rtc.o
 .debug_ranges  0x00000c18       0xf0 Drivers\STM32F3xx_HAL_Driver\Src\stm32f3xx_hal_rtc_ex.o
 .debug_ranges  0x00000d08      0x4e0 Drivers\STM32F3xx_HAL_Driver\Src\stm32f3xx_hal_tim.o
 .debug_ranges  0x000011e8      0x108 Drivers\STM32F3xx_HAL_Driver\Src\stm32f3xx_hal_tim_ex.o
 .debug_ranges  0x000012f0      0x1a0 Drivers\STM32F3xx_HAL_Driver\Src\stm32f3xx_hal_uart.o
 .debug_ranges  0x00001490       0x38 Drivers\STM32F3xx_HAL_Driver\Src\stm32f3xx_hal_uart_ex.o
 .debug_ranges  0x000014c8       0x28 Src\SevSeg.o
 .debug_ranges  0x000014f0      0x198 Src\adc.o
 .debug_ranges  0x00001688       0xa8 Src\main.o
 .debug_ranges  0x00001730      0x108 Src\stm32f3xx_hal_msp.o
 .debug_ranges  0x00001838       0x38 Src\stm32f3xx_it.o
 .debug_ranges  0x00001870       0x18 Src\system_stm32f3xx.o
 .debug_ranges  0x00001888      0x130 Src\uart.o
 .debug_ranges  0x000019b8       0x20 startup\startup_stm32f334x8.o

.debug_line     0x00000000     0xa167
 .debug_line    0x00000000      0x425 Drivers\STM32F3xx_HAL_Driver\Src\stm32f3xx_hal.o
 .debug_line    0x00000425      0x371 Drivers\STM32F3xx_HAL_Driver\Src\stm32f3xx_hal_adc.o
 .debug_line    0x00000796     0x1273 Drivers\STM32F3xx_HAL_Driver\Src\stm32f3xx_hal_adc_ex.o
 .debug_line    0x00001a09      0x448 Drivers\STM32F3xx_HAL_Driver\Src\stm32f3xx_hal_cortex.o
 .debug_line    0x00001e51      0x63d Drivers\STM32F3xx_HAL_Driver\Src\stm32f3xx_hal_dma.o
 .debug_line    0x0000248e      0x46a Drivers\STM32F3xx_HAL_Driver\Src\stm32f3xx_hal_gpio.o
 .debug_line    0x000028f8      0x35c Drivers\STM32F3xx_HAL_Driver\Src\stm32f3xx_hal_pwr.o
 .debug_line    0x00002c54      0x8dd Drivers\STM32F3xx_HAL_Driver\Src\stm32f3xx_hal_rcc.o
 .debug_line    0x00003531      0x4bd Drivers\STM32F3xx_HAL_Driver\Src\stm32f3xx_hal_rcc_ex.o
 .debug_line    0x000039ee      0x8d0 Drivers\STM32F3xx_HAL_Driver\Src\stm32f3xx_hal_rtc.o
 .debug_line    0x000042be      0xba0 Drivers\STM32F3xx_HAL_Driver\Src\stm32f3xx_hal_rtc_ex.o
 .debug_line    0x00004e5e     0x163d Drivers\STM32F3xx_HAL_Driver\Src\stm32f3xx_hal_tim.o
 .debug_line    0x0000649b      0xa67 Drivers\STM32F3xx_HAL_Driver\Src\stm32f3xx_hal_tim_ex.o
 .debug_line    0x00006f02      0xf65 Drivers\STM32F3xx_HAL_Driver\Src\stm32f3xx_hal_uart.o
 .debug_line    0x00007e67      0x443 Drivers\STM32F3xx_HAL_Driver\Src\stm32f3xx_hal_uart_ex.o
 .debug_line    0x000082aa      0x2f5 Src\SevSeg.o
 .debug_line    0x0000859f      0x4c6 Src\adc.o
 .debug_line    0x00008a65      0x54e Src\main.o
 .debug_line    0x00008fb3      0x498 Src\stm32f3xx_hal_msp.o
 .debug_line    0x0000944b      0x3e8 Src\stm32f3xx_it.o
 .debug_line    0x00009833      0x285 Src\system_stm32f3xx.o
 .debug_line    0x00009ab8      0x630 Src\uart.o
 .debug_line    0x0000a0e8       0x7f startup\startup_stm32f334x8.o

.debug_str      0x00000000     0x559c
 .debug_str     0x00000000      0xc13 Drivers\STM32F3xx_HAL_Driver\Src\stm32f3xx_hal.o
                                0xcb3 (size before relaxing)
 .debug_str     0x00000c13      0x61c Drivers\STM32F3xx_HAL_Driver\Src\stm32f3xx_hal_adc.o
                                0xd54 (size before relaxing)
 .debug_str     0x0000122f      0x650 Drivers\STM32F3xx_HAL_Driver\Src\stm32f3xx_hal_adc_ex.o
                               0x136f (size before relaxing)
 .debug_str     0x0000187f      0x2af Drivers\STM32F3xx_HAL_Driver\Src\stm32f3xx_hal_cortex.o
                                0xdd9 (size before relaxing)
 .debug_str     0x00001b2e      0x229 Drivers\STM32F3xx_HAL_Driver\Src\stm32f3xx_hal_dma.o
                                0xace (size before relaxing)
 .debug_str     0x00001d57      0x209 Drivers\STM32F3xx_HAL_Driver\Src\stm32f3xx_hal_gpio.o
                                0x959 (size before relaxing)
 .debug_str     0x00001f60      0x19f Drivers\STM32F3xx_HAL_Driver\Src\stm32f3xx_hal_pwr.o
                                0x88f (size before relaxing)
 .debug_str     0x000020ff      0x2fa Drivers\STM32F3xx_HAL_Driver\Src\stm32f3xx_hal_rcc.o
                                0xac6 (size before relaxing)
 .debug_str     0x000023f9      0x194 Drivers\STM32F3xx_HAL_Driver\Src\stm32f3xx_hal_rcc_ex.o
                                0x918 (size before relaxing)
 .debug_str     0x0000258d      0x42c Drivers\STM32F3xx_HAL_Driver\Src\stm32f3xx_hal_rtc.o
                                0xb99 (size before relaxing)
 .debug_str     0x000029b9      0x501 Drivers\STM32F3xx_HAL_Driver\Src\stm32f3xx_hal_rtc_ex.o
                                0xea3 (size before relaxing)
 .debug_str     0x00002eba      0xf59 Drivers\STM32F3xx_HAL_Driver\Src\stm32f3xx_hal_tim.o
                               0x1863 (size before relaxing)
 .debug_str     0x00003e13      0x5a3 Drivers\STM32F3xx_HAL_Driver\Src\stm32f3xx_hal_tim_ex.o
                               0x129e (size before relaxing)
 .debug_str     0x000043b6      0x926 Drivers\STM32F3xx_HAL_Driver\Src\stm32f3xx_hal_uart.o
                               0x12db (size before relaxing)
 .debug_str     0x00004cdc       0xed Drivers\STM32F3xx_HAL_Driver\Src\stm32f3xx_hal_uart_ex.o
                                0xcdf (size before relaxing)
 .debug_str     0x00004dc9       0x7b Src\SevSeg.o
                                0x6ed (size before relaxing)
 .debug_str     0x00004e44      0x245 Src\adc.o
                               0x11a4 (size before relaxing)
 .debug_str     0x00005089       0xd8 Src\main.o
                               0x1bd2 (size before relaxing)
 .debug_str     0x00005161       0x25 Src\stm32f3xx_hal_msp.o
                               0x15f9 (size before relaxing)
 .debug_str     0x00005186       0xbf Src\stm32f3xx_it.o
                               0x12fb (size before relaxing)
 .debug_str     0x00005245       0x50 Src\system_stm32f3xx.o
                                0x743 (size before relaxing)
 .debug_str     0x00005295      0x307 Src\uart.o
                               0x11a3 (size before relaxing)

.comment        0x00000000       0x7c
 .comment       0x00000000       0x7c Drivers\STM32F3xx_HAL_Driver\Src\stm32f3xx_hal.o
                                 0x7d (size before relaxing)
 .comment       0x0000007c       0x7d Drivers\STM32F3xx_HAL_Driver\Src\stm32f3xx_hal_adc.o
 .comment       0x0000007c       0x7d Drivers\STM32F3xx_HAL_Driver\Src\stm32f3xx_hal_adc_ex.o
 .comment       0x0000007c       0x7d Drivers\STM32F3xx_HAL_Driver\Src\stm32f3xx_hal_cortex.o
 .comment       0x0000007c       0x7d Drivers\STM32F3xx_HAL_Driver\Src\stm32f3xx_hal_dma.o
 .comment       0x0000007c       0x7d Drivers\STM32F3xx_HAL_Driver\Src\stm32f3xx_hal_gpio.o
 .comment       0x0000007c       0x7d Drivers\STM32F3xx_HAL_Driver\Src\stm32f3xx_hal_pwr.o
 .comment       0x0000007c       0x7d Drivers\STM32F3xx_HAL_Driver\Src\stm32f3xx_hal_rcc.o
 .comment       0x0000007c       0x7d Drivers\STM32F3xx_HAL_Driver\Src\stm32f3xx_hal_rcc_ex.o
 .comment       0x0000007c       0x7d Drivers\STM32F3xx_HAL_Driver\Src\stm32f3xx_hal_rtc.o
 .comment       0x0000007c       0x7d Drivers\STM32F3xx_HAL_Driver\Src\stm32f3xx_hal_rtc_ex.o
 .comment       0x0000007c       0x7d Drivers\STM32F3xx_HAL_Driver\Src\stm32f3xx_hal_tim.o
 .comment       0x0000007c       0x7d Drivers\STM32F3xx_HAL_Driver\Src\stm32f3xx_hal_tim_ex.o
 .comment       0x0000007c       0x7d Drivers\STM32F3xx_HAL_Driver\Src\stm32f3xx_hal_uart.o
 .comment       0x0000007c       0x7d Drivers\STM32F3xx_HAL_Driver\Src\stm32f3xx_hal_uart_ex.o
 .comment       0x0000007c       0x7d Src\SevSeg.o
 .comment       0x0000007c       0x7d Src\adc.o
 .comment       0x0000007c       0x7d Src\main.o
 .comment       0x0000007c       0x7d Src\stm32f3xx_hal_msp.o
 .comment       0x0000007c       0x7d Src\stm32f3xx_it.o
 .comment       0x0000007c       0x7d Src\system_stm32f3xx.o
 .comment       0x0000007c       0x7d Src\uart.o

.debug_frame    0x00000000     0x313c
 .debug_frame   0x00000000      0x198 Drivers\STM32F3xx_HAL_Driver\Src\stm32f3xx_hal.o
 .debug_frame   0x00000198      0x170 Drivers\STM32F3xx_HAL_Driver\Src\stm32f3xx_hal_adc.o
 .debug_frame   0x00000308      0x4ec Drivers\STM32F3xx_HAL_Driver\Src\stm32f3xx_hal_adc_ex.o
 .debug_frame   0x000007f4      0x140 Drivers\STM32F3xx_HAL_Driver\Src\stm32f3xx_hal_cortex.o
 .debug_frame   0x00000934      0x184 Drivers\STM32F3xx_HAL_Driver\Src\stm32f3xx_hal_dma.o
 .debug_frame   0x00000ab8       0xf8 Drivers\STM32F3xx_HAL_Driver\Src\stm32f3xx_hal_gpio.o
 .debug_frame   0x00000bb0       0xdc Drivers\STM32F3xx_HAL_Driver\Src\stm32f3xx_hal_pwr.o
 .debug_frame   0x00000c8c      0x160 Drivers\STM32F3xx_HAL_Driver\Src\stm32f3xx_hal_rcc.o
 .debug_frame   0x00000dec       0x98 Drivers\STM32F3xx_HAL_Driver\Src\stm32f3xx_hal_rcc_ex.o
 .debug_frame   0x00000e84      0x25c Drivers\STM32F3xx_HAL_Driver\Src\stm32f3xx_hal_rtc.o
 .debug_frame   0x000010e0      0x394 Drivers\STM32F3xx_HAL_Driver\Src\stm32f3xx_hal_rtc_ex.o
 .debug_frame   0x00001474      0x9cc Drivers\STM32F3xx_HAL_Driver\Src\stm32f3xx_hal_tim.o
 .debug_frame   0x00001e40      0x428 Drivers\STM32F3xx_HAL_Driver\Src\stm32f3xx_hal_tim_ex.o
 .debug_frame   0x00002268      0x5ec Drivers\STM32F3xx_HAL_Driver\Src\stm32f3xx_hal_uart.o
 .debug_frame   0x00002854       0xd4 Drivers\STM32F3xx_HAL_Driver\Src\stm32f3xx_hal_uart_ex.o
 .debug_frame   0x00002928       0x74 Src\SevSeg.o
 .debug_frame   0x0000299c       0xe4 Src\adc.o
 .debug_frame   0x00002a80       0x7c Src\main.o
 .debug_frame   0x00002afc       0xfc Src\stm32f3xx_hal_msp.o
 .debug_frame   0x00002bf8       0xa4 Src\stm32f3xx_it.o
 .debug_frame   0x00002c9c       0x3c Src\system_stm32f3xx.o
 .debug_frame   0x00002cd8      0x184 Src\uart.o
 .debug_frame   0x00002e5c       0x2c c:/program files (x86)/atollic/truestudio for arm 8.0.0/armtools/bin/../lib/gcc/arm-atollic-eabi/6.3.1/../../../../arm-atollic-eabi/lib/armv7e-m/softfp\libc_nano.a(lib_a-init.o)
 .debug_frame   0x00002e88       0x40 c:/program files (x86)/atollic/truestudio for arm 8.0.0/armtools/bin/../lib/gcc/arm-atollic-eabi/6.3.1/../../../../arm-atollic-eabi/lib/armv7e-m/softfp\libm.a(lib_a-w_sqrt.o)
 .debug_frame   0x00002ec8       0x30 c:/program files (x86)/atollic/truestudio for arm 8.0.0/armtools/bin/../lib/gcc/arm-atollic-eabi/6.3.1/../../../../arm-atollic-eabi/lib/armv7e-m/softfp\libm.a(lib_a-e_sqrt.o)
 .debug_frame   0x00002ef8       0x20 c:/program files (x86)/atollic/truestudio for arm 8.0.0/armtools/bin/../lib/gcc/arm-atollic-eabi/6.3.1/../../../../arm-atollic-eabi/lib/armv7e-m/softfp\libm.a(lib_a-s_matherr.o)
 .debug_frame   0x00002f18       0x20 c:/program files (x86)/atollic/truestudio for arm 8.0.0/armtools/bin/../lib/gcc/arm-atollic-eabi/6.3.1/../../../../arm-atollic-eabi/lib/armv7e-m/softfp\libc_nano.a(lib_a-errno.o)
 .debug_frame   0x00002f38       0xac c:/program files (x86)/atollic/truestudio for arm 8.0.0/armtools/bin/../lib/gcc/arm-atollic-eabi/6.3.1/armv7e-m/softfp\libgcc.a(_arm_addsubdf3.o)
 .debug_frame   0x00002fe4       0x50 c:/program files (x86)/atollic/truestudio for arm 8.0.0/armtools/bin/../lib/gcc/arm-atollic-eabi/6.3.1/armv7e-m/softfp\libgcc.a(_arm_muldivdf3.o)
 .debug_frame   0x00003034       0xc4 c:/program files (x86)/atollic/truestudio for arm 8.0.0/armtools/bin/../lib/gcc/arm-atollic-eabi/6.3.1/armv7e-m/softfp\libgcc.a(_arm_cmpdf2.o)
 .debug_frame   0x000030f8       0x20 c:/program files (x86)/atollic/truestudio for arm 8.0.0/armtools/bin/../lib/gcc/arm-atollic-eabi/6.3.1/armv7e-m/softfp\libgcc.a(_arm_unorddf2.o)
 .debug_frame   0x00003118       0x24 c:/program files (x86)/atollic/truestudio for arm 8.0.0/armtools/bin/../lib/gcc/arm-atollic-eabi/6.3.1/armv7e-m/softfp\libgcc.a(_arm_fixdfsi.o)
